{
  "contractName": "Chall",
  "abi": [
    {
      "inputs": [
        {
          "internalType": "uint48",
          "name": "amount",
          "type": "uint48"
        }
      ],
      "name": "deposit",
      "outputs": [],
      "stateMutability": "payable",
      "type": "function"
    },
    {
      "inputs": [
        {
          "internalType": "uint48",
          "name": "amount",
          "type": "uint48"
        }
      ],
      "name": "withdraw",
      "outputs": [],
      "stateMutability": "payable",
      "type": "function"
    },
    {
      "inputs": [],
      "name": "getMoney",
      "outputs": [],
      "stateMutability": "payable",
      "type": "function"
    },
    {
      "inputs": [
        {
          "internalType": "uint48",
          "name": "amount",
          "type": "uint48"
        }
      ],
      "name": "loan",
      "outputs": [],
      "stateMutability": "payable",
      "type": "function"
    },
    {
      "inputs": [],
      "name": "isChallSolved",
      "outputs": [
        {
          "internalType": "bool",
          "name": "solved",
          "type": "bool"
        }
      ],
      "stateMutability": "view",
      "type": "function"
    }
  ],
  "bytecode": "0x608060405265ffffffffffff6000806101000a81548165ffffffffffff021916908365ffffffffffff16021790555060008060066101000a81548165ffffffffffff021916908365ffffffffffff160217905550600080600c6101000a81548165ffffffffffff021916908365ffffffffffff16021790555034801561008457600080fd5b50610495806100946000396000f3fe60806040526004361061004a5760003560e01c80634728fd481461004f57806388cae90a1461008557806398e1b410146100bb578063ed7e286b146100c5578063f9d6a197146100f2575b600080fd5b6100836004803603602081101561006557600080fd5b81019080803565ffffffffffff169060200190929190505050610128565b005b6100b96004803603602081101561009b57600080fd5b81019080803565ffffffffffff1690602001909291905050506101d5565b005b6100c3610291565b005b3480156100d157600080fd5b506100da610293565b60405180821515815260200191505060405180910390f35b6101266004803603602081101561010857600080fd5b81019080803565ffffffffffff16906020019092919050505061030d565b005b806000600c8282829054906101000a900465ffffffffffff160192506101000a81548165ffffffffffff021916908365ffffffffffff1602179055503373ffffffffffffffffffffffffffffffffffffffff168165ffffffffffff1660405180600001905060006040518083038185875af1925050503d80600081146101ca576040519150601f19603f3d011682016040523d82523d6000602084013e6101cf565b606091505b50505050565b348165ffffffffffff1614610252576040517f08c379a00000000000000000000000000000000000000000000000000000000081526004018080602001828103825260188152602001807f506c656173652073656e6420657861637420616d6f756e74000000000000000081525060200191505060405180910390fd5b80600060068282829054906101000a900465ffffffffffff160192506101000a81548165ffffffffffff021916908365ffffffffffff16021790555050565b565b60008060009054906101000a900465ffffffffffff1665ffffffffffff16600060069054906101000a900465ffffffffffff1665ffffffffffff16101580156102f75750600080600c9054906101000a900465ffffffffffff1665ffffffffffff16145b15610305576001905061030a565b600090505b90565b600060069054906101000a900465ffffffffffff1665ffffffffffff168165ffffffffffff1610610389576040517f08c379a00000000000000000000000000000000000000000000000000000000081526004018080602001828103825260298152602001806104376029913960400191505060405180910390fd5b80600060068282829054906101000a900465ffffffffffff160392506101000a81548165ffffffffffff021916908365ffffffffffff1602179055503373ffffffffffffffffffffffffffffffffffffffff168165ffffffffffff1660405180600001905060006040518083038185875af1925050503d806000811461042b576040519150601f19603f3d011682016040523d82523d6000602084013e610430565b606091505b5050505056fe596f752063616e6e6f74207769746864726177207768617420796f7520646f206e6f74206861766521a26469706673582212201edd9d1b901f985dd6a358ba3c83f9743148928515229b894574232b00f18c1464736f6c63430007000033",
  "immutableReferences": {},
  "source": "pragma solidity ^0.7.0;\n\ncontract Chall {\n    uint48 flag_cost = 281474976710655;\n    uint48 amount_you_have = 0;\n    uint48 loaned = 0;\n    function deposit(uint48 amount) public payable {\n       // require(msg.sender==YOUR_WALLET_ADDRESS,\"Please use the wallet provided to you\"); // This is for security purposes\n    require(amount==msg.value,\"Please send exact amount\");\n        amount_you_have += amount;\n    }\n    function withdraw(uint48 amount) public payable {\n       // require(msg.sender==YOUR_WALLET_ADDRESS,\"Please use the wallet provided to you\"); // This is for security purposes\n        require((amount) < amount_you_have, \"You cannot withdraw what you do not have!\");\n        amount_you_have -= amount;\n        msg.sender.call{value:amount}(\"\");\n    }\n\n    function getMoney() public payable {\n        // Used for deployment, can be safely ignored\n    }\n    function loan(uint48 amount) public payable {\n        //require(msg.sender==YOUR_WALLET_ADDRESS,\"Please use the wallet provided to you\"); // This is for security purposes\n        loaned += amount;\n        msg.sender.call{value:amount}(\"\");\n    }\n\n    function isChallSolved() public view returns (bool solved) {\n        if ((amount_you_have >= flag_cost) && (loaned == 0)) {\n            return true;\n        }\n        else {\n            return false;\n        }\n    }\n\n\n}",
  "sourcePath": "/home/noobmaster/Solidity-CTF-Infrastructure-Framework/contracts/Chall.sol",
  "compiler": {
    "name": "solc",
    "version": "0.7.0+commit.9e61f92b.Emscripten.clang"
  },
  "schemaVersion": "3.4.16",
  "updatedAt": "2024-08-20T23:35:14.262Z",
  "devdoc": {
    "kind": "dev",
    "methods": {},
    "version": 1
  },
  "userdoc": {
    "kind": "user",
    "methods": {},
    "version": 1
  }
}